:020000040000FA
:1000000001282100F030990022008C018E018C160D
:1000100023008C01220080309D009E0121000B30C6
:100020008C0002308E002000303098002000FF301D
:100030009B0020007F309C0021008730950020002D
:100040008B01240020309500403094002700A5014A
:10005000A901AA01AB01AC01AD01AE01A001A20151
:10006000A301A601A701A801AF010530A4002C003F
:100070000C30A2006A25B3269322F52202238520A4
:10008000EA203C2101225822252272258120492084
:100090003E282700A9132000911C0800911027007A
:1000A0000830A506A51D08002700A9172700A608E7
:1000B000031DA603A308031DA303A20B6328AC1E04
:1000C0006328AC12AC11A00B69282C1E69282C12D5
:1000D000AC10A10B6F282C1F6F282C132C11A40B14
:1000E00075280530A4000130A90608002700A918CA
:1000F000080029190800A91908000530A4002914CE
:10010000080027002F08B72608002700AE080319AB
:100110008A28080025199428251525102C00371C3D
:1001200008002700251408002C003708F7002700D6
:100130002506F60076189E28A510A628A518A6283C
:10014000A5142700A70A0630A6000800A70803196F
:100150000800A608031D0800AD080319B628A70B60
:10016000B3282D170800AD17A7010800A70BBD285D
:10017000AA0D2A140F30AA050800A70BC328AA0C41
:100180000F30AA050800A70BCE280F302A050F3C18
:100190000F3003190030AA0003190800A70BD62856
:1001A000A701762027000230A9060800A70BD9284E
:1001B000E828A70BDD28AB0A0800A70BE328A70156
:1001C0003030AD000800A70BE8280130AD00080072
:1001D000A70108002C0022082102031821292C0065
:1001E0000C30A20027002C18FA282C190829AC186A
:1001F0001C2908002C10AC160F30A200AC142C16D1
:100200000C30F2002630F300CF262700A0000800B3
:100210002C1B08002C170C30F2001E30F300CF26E8
:100220002700A100AC142C160C30F2002630F3008D
:10023000CF262700A00008002C1A0800AC10AC1133
:1002400008002C000830A20027002C12AC122C0051
:10025000A01B302927002C14AC152C11AC10080061
:100260002700AC1938292C152C13AC102C100800C1
:10027000AC142C102C11080027002808F6000319D4
:100280005729F60303196629F60303197D29F60396
:1002900003199029F6030319A529F6030319BB29AD
:1002A000F6030319CD29F6030319DE29F0290A30D4
:1002B0002C002102031808000A302D020318080040
:1002C00027000830A3000130A80008002C000A30E5
:1002D0002102031877290A302D02031877292700F5
:1002E000A308031D080027000230A800080027000B
:1002F0000030A800A911291108002C000A302102A1
:100300000318772932302D02031C08002C08F60050
:1003100027000830A3000330F61F0430A8000800AF
:100320002C000A3021020318772932302D02031CD9
:100330007329AC1F73292700A308031D0800270099
:100340000530A8007620291508002C000A3021026B
:100350000318772932302D02031C7329AC1B732933
:100360002700A308031D080027000730A8007620F7
:100370002700A91508002C00AC1BC22932302D0221
:10038000031877292C000A302D02031808002700D3
:100390001E30A3000630A80008002C00AC1BD42996
:1003A00032302D02031877292C000A302D02031851
:1003B0009F292700A308031D080077292C00AC1FE4
:1003C000E52932302D02031C77292C000A302D023A
:1003D0000318080027001E30A3000830A8000800FA
:1003E0002C00AC1FF72932302D02031877292C007E
:1003F0000A302D020318B4292700A308031D0800A2
:10040000772927002D1A062AAD1E08002D1BAD01E5
:10041000AD1BAD012D1E172A2C0032302D02031CFE
:10042000172AAC1FB609B2222700EF30AD05AD1E6A
:1004300008002C0014302102031C0800A01BAB098B
:10044000B2222700DF30AD0508002700AD080319F0
:100450002A2A08002C00AD08031D332A2700310882
:100460002700AF0008002C002C08F60027003208F7
:10047000F61B3008F600B501F61BB5173108F60279
:10048000F61BF603F61BF6097608F0002C002D0883
:100490001D276430F200F30150262700B51F532AB0
:1004A0007008F001F002270031087007AF00080063
:1004B0002700AD1B8F2AAD19802A2D19752AAD187A
:1004C0006B2A2D1C08008830B000B1017830B200D2
:1004D0000230AD002A2A2D1F2A2A2A2227002F089F
:1004E0002700B4000430AD00080027002D1F2A2A81
:1004F0002A2227002F082700B3000830AD0008008B
:1005000027002D1F2A2A2A2227002F082700B200A1
:100510003308B0003408B100AD01B2220800270052
:10052000AD01932208000030F022133C031DCC2AB9
:100530000630F022423C031DCC2A0130F022270075
:10054000B0000230F0222700B1000330F022270073
:10055000B2000430F0222C00B6000530F0222C004E
:10056000AB00080027003008F6000130E022270029
:100570003108F6000230E02227003208F60003308E
:10058000E0222C003608F6000430E0222C002B0874
:10059000F6000530E022080027009C30B000B101D1
:1005A0006430B2002C00B6012C00AB01B222133033
:1005B000F6000030E0224230F6000630E02208006B
:1005C000230091007608930015158B135530960083
:1005D000AA30960095148B1715119518ED2A08006E
:1005E000230091001514130808002C003E30B900B8
:1005F0007D30BA000630BD001E30BE00270010302E
:10060000AE0008005424F723A6232700AE08031DDC
:10061000112B6A240D24C12308002C00A001A10184
:1006200008002C00AC01AD01A001A101C1232C00E8
:10063000BD0B08000630BD00BE0B08002C002408CE
:10064000A6002308A5002F08B100F1002E08B00075
:10065000F0000030F300C830F20041272C00710890
:10066000B5007008B4003108F1003008F0004827E8
:100670002C007108B3007008B2002608F1002508AC
:10068000F00041272C007108AA007008A900260874
:10069000F1002508F00048272C007108A800700818
:1006A000A7002700AE01080020001810970196014E
:1006B0008C18582B8C1C5A2B18148C185D2B181066
:1006C00017082C00AF00200016082C00AE002000F8
:1006D00097010E30960018140C186C2B1810170880
:1006E0002C00A400200016082C00A3002000970175
:1006F0000E30960018148C197B2B1810B124F00DB5
:10070000F10DF00DF10DF00DF10DF00DF10D710881
:100710002C00B8002C002F08200097002C002E0879
:1007200020009600B1242C007108AF007008AE00C4
:100730002408200097002C00230820009600B124F4
:100740002C007108A4007008A30008002C00B80158
:1007500020001810970196018C19AC2B8C1DAE2B24
:1007600018148C19B12B1810B124F00DF10DF00DE7
:10077000F10DF00DF10DF00DF10D71082C00B80028
:1007800008002C003908BB000310BB0C3A08F60027
:100790000310760CBB073908F6003A085D272C00D9
:1007A000BC003908F6003A0862272C00BC0203108E
:1007B000BC0C0310BC0C0310BC0C371CE42B3A0817
:1007C00039020318E82BEE2B3A0839020318EE2BF6
:1007D0003B083C073802031C0800F32B3C083B0293
:1007E0003802031808000130B706B71408002C00BF
:1007F000A401A30120001810970196010C18FE2BEC
:100800000C1C002C18140C18032C1810B1242C00EC
:100810007108A4007008A30008002C002408F1004F
:100820002308F000F301F2015627031D192C0301E0
:100830004C2C2C002608F3002508F2005627031D37
:10084000232C03014C2C2C002408F1002308F00079
:100850004F27031C3C2C2C002808F5002708F40027
:10086000F5262C007508A8007408A700DB242C00CE
:10087000AB080319003C4C2C2C002A08F500290871
:10088000F40003272C007508AA007408A900DB24D3
:100890002C00AB08031D003C2C00A000A100A11BF4
:1008A000A103A11BA10908002C00AF01AE0120008B
:1008B0001810970196018C185B2C8C1C5D2C181459
:1008C0008C18602C1810B1242C007108AF0070082F
:1008D000AE0008002C002F08F1002E08F000F301F4
:1008E000F2015627031D762C0301A92C2C00310898
:1008F000F3003008F2005627031D802C0301A92CB9
:100900002C002F08F1002E08F0004F27031C992C13
:100910002C003308F5003208F400F5262C00750889
:10092000B3007408B200DB242C00B6080319003CA5
:10093000A92C2C003508F5003408F40003272C00FE
:100940007508B5007408B400DB242C00B608031D3C
:10095000003C2C00AC00AD00AD1BAD03AD1BAD09E0
:10096000080020001708F1001608F0000230F3001C
:100970005830F2004F27031CC02CF101F001080091
:100980000930F300C430F2004F27031CBD2C0330A4
:10099000F3002030F2004F27031CD32C7308F10022
:1009A0007208F00008000830F300FC30F2004F2716
:1009B000031CCE2C080071087306F106F3067008BC
:1009C0007206F006F20673087506F306F50672085D
:1009D0007406F206F4064F2703182A2D74087202D3
:1009E0007508031C750F7302031864347108C00086
:1009F0007008BF0073087506F306F50672087406E2
:100A0000F206F40648273A27742640087106C00605
:100A1000F1063F087006BF06F00673087506F30678
:100A2000F50672087406F206F40648273A2771089C
:100A30007306F106F30670087206F006F206400827
:100A40007106C006F1063F087006BF06F006502684
:100A500070080800740872027508031C750F730291
:100A6000031C643473087506F306F50672087406F1
:100A7000F206F40671087306F106F30670087206B2
:100A8000F006F20648273A27742671084006F10658
:100A9000C00670083F06F006BF0671087506F1062D
:100AA000F50670087406F006F40648273A27710820
:100AB0007306F106F30670087206F006F2064008A7
:100AC0007106C006F1063F087006BF06F006502604
:100AD000700808000126E92527000F30BE00BD0080
:100AE00016260800E9252700AE08031DA02DAD0835
:100AF000031DA72D27002A08F6007618BA257618B8
:100B0000CD25F618BF257619C425F619C925270065
:100B10002C08F600F618D22527002C08F6007619C6
:100B2000D8252700291C9E2D2908F600F618DD255A
:100B3000F618E3257619DD25F619E32516260800B3
:100B40002E1E080027000F30B900BA009E2DAD18E8
:100B5000B32D2D19B62DAD19B82D2D1ADD25270071
:100B6000AD1ABF259E2DDD25E3259E2DDD259E2D6D
:100B7000E3259E2D27000730B700B80008002700A6
:100B80000F30B900BA00080027000F30BB00BC00CE
:100B9000080027003F30BF00080027000330C100D5
:100BA000C200080027000F30C000C100C2000800CA
:100BB00027000F30C300C400080027000F30BD001D
:100BC0000F30C500080027000F30BE000F30C600F0
:100BD000080003308500B73084001030F6000301B0
:100BE0001A00F60BF02D08000301F7000330850012
:100BF000B73084003030F60077081A00F60BFD2D70
:100C0000080022008C168E120C120C30F600240004
:100C10009101141C092E1108F60B082E22000C1647
:100C200000000C1222008C128E1608000330850082
:100C30008700C63084008600130089358935F600A8
:100C4000003F890E033976041F001300890EF03926
:100C5000F600003F893689360F3976041F001300ED
:100C6000890E89358935C039F60013003F3976047D
:100C70001F000608BA3C031D1C2E0C30F600033082
:100C80008500C6308400240013009100141C462EF9
:100C90001108F60B442E22000C1600000C1208005E
:100CA000F401F501F6011030F7000314F00DF10D19
:100CB000F40DF50DF60D7208701C672EF402730822
:100CC000031C730FF5020130031CF6026F2EF407AC
:100CD00073080318730FF50701300318F607F70BB5
:100CE000562EF00DF10D08000310F00DF10DF00D72
:100CF000F10D7108F7007008F6000310F60DF70DFE
:100D0000F60DF70DF60DF70D7608F00777080318C6
:100D1000770FF1070310F60DF70D7608F007770847
:100D20000318770FF107080023009D18A32E1D1943
:100D3000AD2E2000911E942E8B138B1B9C2E230016
:100D400019088B1708008B138B1BA32E1D12190873
:100D5000190819081D168B17942E8B138B1BAD2E9B
:100D600019088B17942E25000A30930008002000E4
:100D7000783EF000F101E326322718109701960122
:100D800025007008910071089200200011111814BC
:100D90000E16111DC92E0E1218101111080072081E
:100DA000F60001305D27F200F60073085D27F300BE
:100DB000282772083602031CD82E36087302031C3B
:100DC000D82E360808000310F00DF101F10D71085E
:100DD000F3007008F2000310F20DF30D7208F00733
:100DE00073080318730FF107080070087402710884
:100DF000031C013E75028039031D08007008F400D1
:100E00007108F5000800700874027108031C013EA7
:100E100075028039031908007008F4007108F500A4
:100E2000080023009E1C122FF6005030F700F70B2D
:100E3000172F230076089A000800F101F601F61535
:100E4000F00C0318F107F10CF00CF60B212F080041
:100E50002700B6080319B6030310360C0318B43A7A
:100E6000B60008000C30F0070330F3000318730FCE
:100E7000F10708000310F10CF00C0310F10CF00C5A
:100E800008007208F00773080318730AF1070800D6
:100E90007208F0027308031C730FF1020800700857
:100EA00072027108031C710F73020800700872024D
:100EB000031D08007108730208007602031CF60285
:0E0EC0007608080076020318F602760808008D
:020000040001F9
:02000E0084C9A3
:02001000FFDC13
:00000001FF
