:020000040000FA
:1000000001282100F030990022008C018E018C160D
:1000100023008C01220080309D009E0121000B30C6
:100020008C0002308E002000303098002000FF301D
:100030009B0020007F309C0021008730950020002D
:100040008B01230020309E001E1533309B00903022
:100050009D0000309F0019081908190800309A0007
:10006000240020309500403094002C00A501A90107
:10007000AA01AB01AC01AD01AE01A001A201A30137
:10008000A601A701A801AF010530A4002C000C3087
:10009000C90002236224A022E823E9239420F72048
:1000A00049210E22652232220A23902058204D2811
:1000B0002C00A9132000911C080091102C0008307E
:1000C000A506A51D08002C00A9172C00A608031DD5
:1000D000A603A308031DA303A20B7228AC1E72285B
:1000E000AC12AC11A00B78282C1E78282C12AC1066
:1000F000A10B7E282C1F7E282C132C11A40B8428E6
:100100000530A4000130A90608002C00A918080039
:1001100029190800A91908000530A40029140800AD
:100120002C002F08662408002C00AE08031999281B
:1001300008002519A328251525102C004E1C0800A1
:100140002C00251408002C004E08F7002C00250672
:10015000F600761CB3282510771825142C00A70A62
:100160000630A6000800A70803190800A608031D0A
:100170000800AD080319C328A70BC0282D170800D5
:10018000AD17A7010800A70BCA28AA0D2A140F3023
:10019000AA050800A70BD028AA0C0F30AA05080052
:1001A000A70BDB280F302A050F3C0F300319003056
:1001B000AA0003190800A70BE328A70185202C003B
:1001C0000230A9060800A70BE628F528A70BEA28A5
:1001D000AB0A0800A70BF028A7013030AD000800DB
:1001E000A70BF5280130AD000800A70108002C007E
:1001F0004908480203182E292C000C30C9002C0095
:100200002C1807292C191529AC18292908002C109D
:10021000AC160F30A200AC142C160C30F2002630B5
:10022000F3007E242C00A00008002C1B08002C17D3
:100230000C30F2001E30F3007E242C00A100AC1420
:100240002C160C30F2002630F3007E242C00A00087
:1002500008002C1A0800AC10AC1108002C00083063
:10026000C9002C002C12AC122C00C71B3D292C00FD
:100270002C14AC152C11AC1008002C00AC1945291D
:100280002C152C13AC102C100800AC142C102C11B5
:1002900008002C002808F60003196429F603031946
:1002A0007329F60303198A29F60303199D29F60316
:1002B0000319B229F6030319C829F6030319DA2929
:1002C000F6030319EB29FD290A302C004802031814
:1002D00008000A304C02031808002C000830A30064
:1002E0000130A80008002C000A30480203188429B5
:1002F0000A304C02031884292C00A308031D0800AF
:100300002C000230A80008002C000030A800A91121
:10031000291108002C000A304802031884293230C1
:100320004C02031C08004B08F6002C000830A30008
:100330000330F61F0430A80008002C000A304802E1
:100340000318842932304C02031C8029CB1F8029DA
:100350002C00A308031D08002C000530A8008520F0
:10036000291508002C000A3048020318842932306D
:100370004C02031C8029CB1B80292C00A308031DE1
:1003800008002C000730A80085202C00A9150800C3
:100390002C00CB1BCF2932304C02031884292C00AF
:1003A0000A304C02031808002C001E30A30006304F
:1003B000A80008002C00CB1BE12932304C020318A6
:1003C00084292C000A304C020318AC292C00A30805
:1003D000031D080084292C00CB1FF22932304C0267
:1003E000031C84292C000A304C02031808002C003E
:1003F0001E30A3000830A80008002C00CB1F042AE0
:1004000032304C02031884292C000A304C020318A5
:10041000C1292C00A308031D080084292C002D1AD3
:10042000132AAD1E08002D1BAD01AD1BAD012D1E05
:10043000242A2C0032304C02031C242ACB1FCD0965
:10044000BF222C00EF30AD05AD1E08002C0014308B
:100450004802031C0800C71BCA09BF222C00DF305A
:10046000AD0508002C00AD080319372A08002C0040
:10047000CC08031D402A2C0031082C00AF000800D6
:100480002C004B08F6002C003208F61B3008F60052
:10049000B501F61BB5173108F602F61BF603F61B7D
:1004A000F6097608F0002C004C08B0246430F20005
:1004B000F3011F242C00B51F602A7008F001F00220
:1004C0002C0031087007AF0008002C00AD1B9C2ADF
:1004D000AD198D2A2D19822AAD18782A2D1C0800F5
:1004E0008830B000B1017830B2000230AD00372A58
:1004F0002D1F372A37222C002F082C00B40004307F
:10050000AD0008002C002D1F372A37222C002F08A1
:100510002C00B3000830AD0008002C002D1F372A36
:1005200037222C002F082C00B2003308B00034080A
:10053000B100AD01BF2208002C00AD01A0220800CF
:100540000030FD22133C031DD92A0630FD22423C17
:10055000031DD92A0130FD222C00B0000230FD22FB
:100560002C00B1000330FD222C00B2000430FD222B
:100570002C00CD000530FD222C00CA0008002C0004
:100580003008F6000130ED222C003108F600023070
:10059000ED222C003208F6000330ED222C004D082D
:1005A000F6000430ED222C004A08F6000530ED225A
:1005B00008002C009C30B000B1016430B2002C0067
:1005C000CD012C00CA01BF221330F6000030ED220D
:1005D0004230F6000630ED22080023009100760834
:1005E000930015158B1355309600AA30960095147C
:1005F0008B1715119518FA2A08002300910015147D
:1006000013080800992381232C000F30BE00BD0081
:10061000AE23080081232C00AE08031D382BAD0843
:10062000031D3F2B2C002A08F6007618522376185B
:100630006523F618572376195C23F61961232C00DD
:100640002C08F600F6186A232C002C08F600761900
:1006500070232C00291C362B2908F600F618752368
:10066000F6187B2376197523F6197B23AE23080031
:100670002E1E08002C000F30B900BA00362BAD1822
:100680004B2B2D194E2BAD19502B2D1A75232C00E9
:10069000AD1A5723362B75237B23362B7523362B28
:1006A0007B23362B2C000730B700B80008002C0045
:1006B0000F30B900BA0008002C000F30BB00BC009E
:1006C00008002C003F30BF0008002C000330C100A0
:1006D000C20008002C000F30C000C100C20008009A
:1006E0002C000F30C300C40008002C000F30BD00E8
:1006F0000F30C50008002C000F30BE000F30C600C0
:10070000080006308500373084001030F600030101
:100710001A00F60B882B08000301F700063085004D
:10072000373084003030F60077081A00F60B952B2E
:10073000080022008C168E120C120C30F6002400D9
:100740009101141CA12B1108F60BA02B22000C16F2
:1007500000000C1222008C128E1608000630850054
:100760008700463084008600130089358935F600FD
:10077000003F890E033976041F001300890EF039FB
:10078000F600003F893689360F3976041F001300C2
:10079000890E89358935C039F60013003F39760452
:1007A0001F0006083A3C031DB42B0C30F60006303F
:1007B000850046308400240013009100141CDE2BB9
:1007C0001108F60BDC2B22000C1600000C1208009E
:1007D00008004324873C031DE92B43242C00CB0055
:1007E000873C0319ED2B43242C00C700873C0319D9
:1007F000ED2B43242C00CE002C00AE00873C0319C7
:10080000ED2B2C000130CE052C00F030AE052C0075
:100810004708C800C81BC803C81BC8094B08CC0040
:10082000CC1BCC03CC1BCC09CD080319192CCB094C
:10083000CB0ACA0803190800C709C70A0800F4014F
:10084000F501F6011030F7000314F00DF10DF40D71
:10085000F50DF60D7208701C362CF4027308031C9B
:10086000730FF5020130031CF6023E2CF4077308E7
:100870000318730FF50701300318F607F70B252C43
:10088000F00DF10D080023009D18522C1D195C2C51
:100890002000911E432C8B138B1B4B2C230019081B
:1008A0008B1708008B138B1B522C1D12190819086B
:1008B00019081D168B17432C8B138B1B5C2C1908E6
:1008C0008B17432C25000A30930008002000783E47
:1008D000F000F1019224C52418109701960125001B
:1008E00070089100710892002000111118140E1662
:1008F000111D782C0E121810111108007208F60044
:100900000130CD24F200F6007308CD24F300BB249F
:1009100072083602031C872C36087302031C872CCE
:10092000360808000310F00DF101F10D7108F30015
:100930007008F2000310F20DF30D7208F00773084F
:100940000318730FF107080023009E1CA52CF60066
:100950005030F700F70BAA2C230076089A00080005
:10096000F101F601F615F00C0318F107F10CF00C8B
:10097000F60BB42C08002C00B6080319B6030310BC
:10098000360C0318B43AB60008000C30F0070330F8
:10099000F3000318730FF10708007602031CF60238
:0409A00076080800CD
:020000040001F9
:02000E0084C9A3
:02001000FFDC13
:00000001FF
