:020000040000FA
:10000000762A20003E30B9007D30BA000630BD00AF
:100010001E30BE0020001030C30008006021032104
:10002000B2202000C308031D1D2876211921CD20F0
:1000300008002000A001A10108002000AC01AD01D2
:10004000A001A101CD202000BD0B08000630BD009D
:10005000BE0B080020002408A6002308A5002F08D6
:10006000B100F1002E08B000F0000030F300C830FD
:10007000F200732320007108B5007008B400310845
:10008000F1003008F0007A2320007108B3007008F6
:10009000B2002608F1002508F00073232000710843
:1000A000AA007008A9002608F1002508F0007A23AC
:1000B00020007108A8007008A7002000C3010800F4
:1000C00020001810970196010C1964280C1D662851
:1000D00018140C196928181017082000AF00200008
:1000E00016082000AE00200097010E30960018146C
:1000F0000C1A7828181017082000A40020001608F1
:100100002000A300200097010E30960018148C1ACE
:1001100087281810BD21F00DF10DF00DF10DF00D37
:10012000F10DF00DF10D71082000B80020002F082E
:100130002000970020002E0820009600BD212000FE
:100140007108AF007008AE0024082000970020005E
:10015000230820009600BD2120007108A40070082B
:10016000A30008002000B801200018109701960194
:100170008C1AB8288C1EBA2818148C1ABD2818108E
:10018000BD21F00DF10DF00DF10DF00DF10DF00DA3
:10019000F10D71082000B800080020003908BB00EC
:1001A0000310BB0C3A08F6000310760CBB073908A5
:1001B000F6003A088F232000BC003908F6003A0800
:1001C00094232000BC020310BC0C0310BC0C0310D1
:1001D000BC0C371CF0283A0839020318F428FA2816
:1001E0003A0839020318FA283B083C073802031C76
:1001F0000800FF283C083B023802031808000130C1
:10020000B706B71408002000A401A30120001810AD
:10021000970196010C1A0A290C1E0C2918140C1AA5
:100220000F291810BD2120007108A4007008A30038
:10023000080020002408F1002308F000F301F20177
:100240008823031D25290301582920002608F300CF
:100250002508F2008823031D2F29030158292000B7
:100260002408F1002308F0008123031C4829200002
:100270002808F5002708F400222320007508A800AC
:100280007408A700E7212000AB080319003C582997
:1002900020002A08F5002908F40030232000750802
:1002A000AA007408A900E7212000AB08031D003C48
:1002B0002000A000A100A11BA103A11BA10908000F
:1002C0002000AF01AE0120001810970196010C1913
:1002D00067290C1D692918140C196C291810BD21E7
:1002E00020007108AF007008AE00080020002F0841
:1002F000F1002E08F000F301F2018823031D82298A
:100300000301B52920003108F3003008F2008823EA
:10031000031D8C290301B52920002F08F1002E08A8
:10032000F0008123031CA52920003308F5003208C2
:10033000F400222320007508B3007408B200E721FE
:100340002000B6080319003CB52920003508F50047
:100350003408F400302320007508B5007408B40098
:10036000E7212000B608031D003C2000AC00AD00D2
:10037000AD1BAD03AD1BAD09080020001708F1004F
:100380001608F0000230F3005830F2008123031CFD
:10039000CC29F101F00108000930F300C430F2006B
:1003A0008123031CC9290330F3002030F20081238C
:1003B000031CDF297308F1007208F0000800083000
:1003C000F300FC30F2008123031CDA2908007108D5
:1003D0007306F106F30670087206F006F20673085B
:1003E0007506F306F50672087406F206F406812314
:1003F0000318362A740872027508031C750F7302FD
:10040000031864347108C0007008BF0073087506D3
:10041000F306F50672087406F206F4067A236C23D6
:10042000CF2240087106C006F1063F087006BF06DD
:10043000F00673087506F306F50672087406F206F0
:10044000F4067A236C2371087306F106F30670082C
:100450007206F006F20640087106C006F1063F0873
:100460007006BF06F006AB2270080800740872021E
:100470007508031C750F7302031C6434730875063A
:10048000F306F50672087406F206F40671087306A0
:10049000F106F30670087206F006F2067A236C2362
:1004A000CF2271084006F106C00670083F06F0062C
:1004B000BF0671087506F106F50670087406F006A9
:1004C000F4067A236C2371087306F106F3067008AC
:1004D0007206F006F20640087106C006F1063F08F3
:1004E0007006BF06F006AB227008080021007A30C3
:1004F000990020008C0122008C0123008C01210036
:10050000FF308C00220000309D0020002030980039
:10051000230020309E001E1519309B0080309D0066
:1005200000309F0019081908190800309A002000AF
:1005300001200E209C22992A87304B2320002C0872
:100540004B23200020084B232000370801392000CE
:1005500043044B230800F401F501F6011030F700C5
:100560000314F00DF10DF40DF50DF60D7208701C6D
:10057000C22AF4027308031C730FF5020130031C36
:10058000F602CA2AF40773080318730FF50701303F
:100590000318F607F70BB12AF00DF10D0800031050
:1005A000F00DF10DF00DF10D7108F7007008F60077
:1005B0000310F60DF70DF60DF70DF60DF70D760895
:1005C000F00777080318770FF1070310F60DF70D02
:1005D0007608F00777080318770FF1070800230063
:1005E0009D18FE2A1D19082B2000911EEF2A8B133F
:1005F0008B1BF72A230019088B1708008B138B1B02
:10060000FE2A1D121908190819081D168B17EF2A42
:100610008B138B1B082B19088B17EF2A7208F60017
:1006200001308F23F200F60073088F23F30062235A
:1006300072084102031C172B41087302031C172B7D
:1006400041080800700874027108031C013E75021D
:100650008039031D08007008F4007108F5000800D7
:10066000700874027108031C013E75028039031979
:1006700008007008F4007108F50008000301F70095
:1006800000308500423084000330F60077081A00FD
:10069000F60B472B080023009E1C4C2BF60028303D
:1006A000F700F70B512B230076089A000800F101A0
:1006B000F601F615F00C0318F107F10CF00CF60B2F
:1006C0005B2B08002000C1080319C1030310410C73
:1006D0000318B43AC10008000310F10CF00C031029
:1006E000F10CF00C08007208F00773080318730A85
:1006F000F10708007208F0027308031C730FF1027F
:100700000800700872027108031C710F7302080060
:1007100070087202031D0800710873020800760257
:10072000031CF6027608080076020318F602760823
:020730000800BF
:020000040001F9
:02000E00840963
:02001000FF1CD3
:00000001FF
