:020000040000FA
:10000000742A20003E30B9007D30BA000630BD00B1
:100010001E30BE0020001030C30008005E2020000B
:10002000C308031D1B2874211721CB2008002000C2
:10003000A001A10108002000AC01AD01A001A101B7
:10004000CB202000BD0B08000630BD00BE0B080011
:1000500020002408A6002308A5002F08B100F10005
:100060002E08B000F0000030F300C830F200712319
:1000700020007108B5007008B4003108F1003008A4
:10008000F000782320007108B3007008B200260841
:10009000F1002508F000712320007108AA00700803
:1000A000A9002608F1002508F00078232000710837
:1000B000A8007008A7002000C30108002000181045
:1000C000970196010C1962280C1D642818140C194C
:1000D0006728181017082000AF002000160820001D
:1000E000AE00200097010E30960018140C1A7628E6
:1000F000181017082000A400200016082000A300F4
:10010000200097010E30960018148C1A85281810BC
:10011000BB21F00DF10DF00DF10DF00DF10DF00D15
:10012000F10D71082000B80020002F082000970072
:1001300020002E0820009600BB2120007108AF008F
:100140007008AE002408200097002000230820003B
:100150009600BB2120007108A4007008A3000800CD
:100160002000B80120001810970196018C1AB628BB
:100170008C1EB82818148C1ABB281810BB21F00D3F
:10018000F10DF00DF10DF00DF10DF00DF10D710807
:100190002000B800080020003908BB000310BB0C89
:1001A0003A08F6000310760CBB073908F6003A0847
:1001B0008D232000BC003908F6003A089223200065
:1001C000BC020310BC0C0310BC0C0310BC0C371C8D
:1001D000EE283A0839020318F228F8283A083902BA
:1001E0000318F8283B083C073802031C0800FD28C8
:1001F0003C083B023802031808000130B706B71468
:1002000008002000A401A301200018109701960106
:100210000C1A08290C1E0A2918140C1A0D2918107A
:10022000BB2120007108A4007008A3000800200072
:100230002408F1002308F000F301F2018623031DD6
:1002400023290301562920002608F3002508F2007F
:100250008623031D2D290301562920002408F100BF
:100260002308F0007F23031C462920002808F500FE
:100270002708F400202320007508A8007408A700B0
:10028000E5212000AB080319003C562920002A086C
:10029000F5002908F4002E2320007508AA00740830
:1002A000A900E5212000AB08031D003C2000A000B0
:1002B000A100A11BA103A11BA10908002000AF01FF
:1002C000AE0120001810970196010C1965290C1D2C
:1002D000672918140C196A291810BB21200071080D
:1002E000AF007008AE00080020002F08F1002E08B3
:1002F000F000F301F2018623031D80290301B329D5
:1003000020003108F3003008F2008623031D8A29FB
:100310000301B32920002F08F1002E08F0007F23ED
:10032000031CA32920003308F5003208F400202321
:1003300020007508B3007408B200E5212000B6085B
:100340000319003CB32920003508F5003408F400F7
:100350002E2320007508B5007408B400E5212000A4
:10036000B608031D003C2000AC00AD00AD1BAD0382
:10037000AD1BAD09080020001708F1001608F000B9
:100380000230F3005830F2007F23031CCA29F10128
:10039000F00108000930F300C430F2007F23031C91
:1003A000C7290330F3002030F2007F23031CDD292E
:1003B0007308F1007208F00008000830F300FC3008
:1003C000F2007F23031CD829080071087306F10688
:1003D000F30670087206F006F20673087506F30657
:1003E000F50672087406F206F4067F230318342A11
:1003F000740872027508031C750F730203186434C5
:100400007108C0007008BF0073087506F306F50692
:1004100072087406F206F40678236A23CD22400897
:100420007106C006F1063F087006BF06F0067308A5
:100430007506F306F50672087406F206F4067823CC
:100440006A2371087306F106F30670087206F00657
:10045000F20640087106C006F1063F087006BF06A6
:10046000F006A92270080800740872027508031CBF
:10047000750F7302031C643473087506F306F506E2
:1004800072087406F206F40671087306F106F306A4
:1004900070087206F006F20678236A23CD227108EE
:1004A0004006F106C00670083F06F006BF06710858
:1004B0007506F106F50670087406F006F406782352
:1004C0006A2371087306F106F30670087206F006D7
:1004D000F20640087106C006F1063F087006BF0626
:1004E000F006A9227008080021007A309900200047
:1004F0008C0122008C0123008C012100FF308C0034
:10050000220000309D002000203098002300203081
:100510009E001E1519309B0080309D0000309F000A
:1005200019081908190800309A00200001200E202F
:100530009A22972A8730492320002C08492320003B
:1005400020084923200037080139200043044923AB
:100550000800F401F501F6011030F7000314F00D66
:10056000F10DF40DF50DF60D7208701CC02AF402A1
:100570007308031C730FF5020130031CF602C82A2E
:10058000F40773080318730FF50701300318F60713
:10059000F70BAF2AF00DF10D08000310F00DF10D6F
:1005A000F00DF10D7108F7007008F6000310F60D5C
:1005B000F70DF60DF70DF60DF70D7608F007770835
:1005C0000318770FF1070310F60DF70D7608F00703
:1005D00077080318770FF107080023009D18FC2AFD
:1005E0001D19062B2000911EED2A8B138B1BF52A5B
:1005F000230019088B1708008B138B1BFC2A1D1274
:100600001908190819081D168B17ED2A8B138B1B57
:10061000062B19088B17ED2A7208F60001308D237E
:10062000F200F60073088D23F30060237208410284
:10063000031C152B41087302031C152B41080800ED
:10064000700874027108031C013E75028039031D95
:1006500008007008F4007108F500080070087402C2
:100660007108031C013E75028039031908007008E7
:10067000F4007108F50008000301F7000030850060
:10068000423084000330F60077081A00F60B452B41
:10069000080023009E1C4A2BF6002830F700F70BB9
:1006A0004F2B230076089A000800F101F601F61599
:1006B000F00C0318F107F10CF00CF60B592B0800A5
:1006C0002000C1080319C1030310410C0318B43AF8
:1006D000C10008000310F10CF00C0310F10CF00C39
:1006E00008007208F00773080318730AF10708007E
:1006F0007208F0027308031C730FF10208007008FF
:1007000072027108031C710F7302080070087202F4
:10071000031D08007108730208007602031CF6022C
:0E0720007608080076020318F6027608080034
:020000040001F9
:02000E0084C9A3
:02001000FFDC13
:00000001FF
