:020000040000FA
:1000000001282100F030990022008C018E018C160D
:1000100023008C01220080309D009E0121000B30C6
:100020008C0002308E002000303098002000FF301D
:100030009B0020007F309C0021008730950020002D
:100040008B01230020309E001E1533309B00903022
:100050009D0000309F0019081908190800309A0007
:10006000240020309500403094002C00A501A90107
:10007000AA01AB01AC01AD01AE01A001A201A30137
:10008000A601A701A801AF010530A4002C000C3087
:10009000C900BD225B22F923FA238C20ED203F21E9
:1000A0000422882354204C282C00A9132000911CE2
:1000B000080091102C000830A506A51D08002C0092
:1000C000A9172C00A608031DA603A308031DA3035C
:1000D000A20B6E28AC1E6E28AC12AC11A00B7428BB
:1000E0002C1E74282C12AC10A10B7A282C1F7A28F5
:1000F0002C132C11A40B80280530A4000130A90674
:1001000008002C00A918080029190800A9190800DE
:100110000530A400291408002C00AE08031991280A
:10012000080025199B28251525102C004E1C0800B9
:100130002C00251408002C004E08F7002C00250682
:10014000F600761CAB282510771825142C00A70A7A
:100150000630A6000800A70803190800A608031D1A
:100160000800AD080319BB28A70BB8282D170800F5
:10017000AD17A7010800A70BC228AA0D2A140F303B
:10018000AA050800A70BC828AA0C0F30AA0508006A
:10019000A70BD3280F302A050F3C0F30031900306E
:1001A000AA0003190800A70BDB28A70181202C0057
:1001B0000230A9060800A70BDE28EB28A70BE228CF
:1001C000AB0A0800A70BE828A7013030AD000800F3
:1001D000A70BEB280800A70108002C0049084802DB
:1001E000031824292C000C30C9002C002C18FD28E1
:1001F0002C190B29AC181F2908002C10AC160F3035
:10020000A200AC142C160C30F2002630F30073243C
:100210002C00A00008002C1B08002C170C30F2004A
:100220001E30F30073242C00A100AC142C160C30EB
:10023000F2002630F30073242C00A00008002C1AD2
:100240000800AC10AC1108002C000830C9002C00CC
:100250002C12AC122C00C71B33292C002C14AC150B
:100260002C11AC1008002C00AC193B292C152C13B8
:10027000AC102C100800AC142C102C1108002C0011
:100280002808F60003195A29F60303196929F60309
:1002900003198029F60303199329F6030319A829E2
:1002A000F6030319BE29F6030319D029F60303192F
:1002B000E129F3290A302C004802031808000A300B
:1002C0004C02031808002C000830A3000130A800DD
:1002D00008002C000A30480203187A290A304C0220
:1002E00003187A292C00A308031D08002C000230F3
:1002F000A80008002C000030A800A911291108004E
:100300002C000A30480203187A2932304C02031CB0
:1003100008004B08F6002C000830A3000330F61F3D
:100320000430A80008002C000A30480203187A297B
:1003300032304C02031C7629CB1F76292C00A308EF
:10034000031D08002C000530A80081202915080095
:100350002C000A30480203187A2932304C02031C60
:100360007629CB1B76292C00A308031D08002C003E
:100370000730A80081202C00A91508002C00CB1BF9
:10038000C52932304C0203187A292C000A304C025D
:10039000031808002C001E30A3000630A800080037
:1003A0002C00CB1BD72932304C0203187A292C00A1
:1003B0000A304C020318A2292C00A308031D0800D0
:1003C0007A292C00CB1FE82932304C02031C7A29F1
:1003D0002C000A304C02031808002C001E30A30029
:1003E0000830A80008002C00CB1FFA2932304C023C
:1003F00003187A292C000A304C020318B7292C0064
:10040000A308031D08007A292C002D1A092AAD1E05
:1004100008002D1BAD01AD1BAD012D1E1A2A2C00AD
:1004200032304C02031C1A2ACB1FCD097A222C0031
:10043000EF30AD05AD1E08002C0014304802031C3F
:100440000800C71BCA097A222C00DF30AD0508005E
:100450002C00AD0803192D2A08002C00CC08031D20
:10046000362A2C0031082C00AF0008002C004B0865
:10047000F6002C003208F61B3008F600B501F61B1A
:10048000B5173108F602F61BF603F61BF6097608D7
:10049000F0002C004C0893246430F200F301302467
:1004A0002C00B51F562A7008F001F0022C0031080C
:1004B0007007AF0008000030B822133C031D942AD7
:1004C0000630B822423C031D942A0130B8222C0089
:1004D000B0000230B8222C00B1000330B8222C004A
:1004E000B2000430B8222C00CD000530B8222C0018
:1004F000CA0008002C003008F6000130A8222C00A9
:100500003108F6000230A8222C003208F600033031
:10051000A8222C004D08F6000430A8222C004A081E
:10052000F6000530A82208002C009C30B000B10174
:100530006430B2002C00CD012C00CA017A221330A5
:10054000F6000030A8224230F6000630A82208004B
:10055000230091007608930015158B1355309600F3
:10056000AA30960095148B1715119518B52A080016
:1005700023009100151413080800AA2327003F3018
:10058000A000FA2227001F30A000FA2227000F3017
:10059000A000FA2227000730A000FA22270003302B
:1005A000A000FA2227000130A000FA223F30942355
:1005B000BF2378237823782378237823013094236A
:1005C000BF23782303309423BF2378230730942359
:1005D000BF2378230F309423BF2378231F30942325
:1005E000BF2378233F309423BF2378238923BF235D
:1005F0007823BE2A8923270020082C00B700BF23B8
:100600006B238923270020082C00B800BF236B230D
:100610008923270020082C00B900BF236B238923DE
:10062000270020082C00BA00BF236B238923270052
:1006300020082C00BB00BF236B2389232700200840
:100640002C00BC00BF236B238923270020082C002B
:10065000BD00BF236B238923270020082C00BE0088
:10066000BF236B238923270020082C00BF00BF2352
:100670006B238923270020082C00C000BF236B2395
:100680008923270020082C00C100BF236B23892366
:10069000270020082C00C200BF236B2389232700DA
:1006A00020082C00C300BF236B23892327002008C8
:1006B0002C00C400BF236B238923270020082C00B3
:1006C000C500BF236B238923270020082C00C60008
:1006D000BF236B2308006D30A100BF30A2000230A1
:1006E000A300A10B742BA20B762BA30B712B08007C
:1006F0004730A1007130A2001230A300A10B812B62
:10070000A20B832BA30B7E2B852B862B872B08001C
:10071000080006308500373084001030F6000301F1
:100720001A00F60B902B0800F000063085003730D9
:1007300084001030F6007008902B0301F70006309B
:100740008500373084003030F60077081A00F60B49
:10075000A62B080022008C168E120C120C30F6000C
:1007600024009101141CB22B1108F60BB12B2200AE
:100770000C1600000C1222008C128E160800063097
:10078000850087004630840086001300893589354E
:10079000F600003F890E033976041F001300890E0E
:1007A000F039F600003F893689360F3976041F008C
:1007B0001300890E89358935C039F60013003F3999
:1007C00076041F0006083A3C031DC52B0C30F600CA
:1007D0000630850046308400240013009100141C6C
:1007E000EF2B1108F60BED2B22000C1600000C125B
:1007F000080008005424873C031DFA2B54242C00C5
:10080000CB00873C0319FE2B54242C00C700873CE7
:100810000319FE2B54242C00CE002C00AE00873C84
:100820000319FE2B2C000130CE052C00F030AE0554
:100830002C004708C800C81BC803C81BC8094B08C0
:10084000CC00CC1BCC03CC1BCC09CD0803192A2C23
:10085000CB09CB0ACA0803190800C709C70A080050
:10086000F401F501F6011030F7000314F00DF10D5D
:10087000F40DF50DF60D7208701C472CF402730888
:10088000031C730FF5020130031CF6024F2CF40712
:1008900073080318730FF50701300318F607F70BF9
:1008A000362CF00DF10D080023009D18632C1D1946
:1008B0006D2C2000911E542C8B138B1B5C2C230061
:1008C00019088B1708008B138B1B632C1D1219083A
:1008D000190819081D168B17542C8B138B1B6D2CA4
:1008E00019088B17542C7208F6000130A824F20066
:1008F000F6007308A824F3009E2472083602031C35
:100900007C2C36087302031C7C2C3608080023005C
:100910009E1C882CF6005030F700F70B8D2C23001E
:1009200076089A000800F101F601F615F00C03189C
:10093000F107F10CF00CF60B972C08002C00B60810
:100940000319B6030310360C0318B43AB6000800B6
:0A0950007602031CF6027608080088
:020000040001F9
:02000E0084C9A3
:02001000FFDC13
:00000001FF
