:020000040000FA
:1000000001282100F030990022008C018E018C160D
:1000100023008C01220080309D009E0121000B30C6
:100020008C0002308E002000303098002000FF301D
:100030009B0020007F309C0021008730950020002D
:100040008B01240020309500403094002700A5014A
:10005000A901AA01AB01AC01AD01AE01A001A20151
:10006000A301A601A701A801AF010530A4002C003F
:100070000C30A2006825B1269122F32200238520AE
:10008000E8203A21FF215622232270258120492091
:100090003E282700A9132000911C0800911027007A
:1000A0000830A506A51D08002700A9172700A608E7
:1000B000031DA603A308031DA303A20B6328AC1E04
:1000C0006328AC12AC11A00B69282C1E69282C12D5
:1000D000AC10A10B6F282C1F6F282C132C11A40B14
:1000E00075280530A4000130A90608002700A918CA
:1000F000080029190800A91908000530A4002914CE
:10010000080027002F08B52608002700AE080319AD
:100110008A28080025199428251525102C00371C3D
:1001200008002700251408002C003708F7002700D6
:100130002506F600761CA42825107718251427001C
:10014000A70A0630A6000800A70803190800A60899
:10015000031D0800AD080319B428A70BB1282D17FB
:100160000800AD17A7010800A70BBB28AA0D2A1489
:100170000F30AA050800A70BC128AA0C0F30AA054A
:100180000800A70BCC280F302A050F3C0F300319AD
:100190000030AA0003190800A70BD428A701762075
:1001A00027000230A9060800A70BD728E628A70BCE
:1001B000DB28AB0A0800A70BE128A7013030AD000F
:1001C0000800A70BE6280130AD000800A7010800D1
:1001D0002C002208210203181F292C000C30A20039
:1001E00027002C18F8282C190629AC181A29080001
:1001F0002C10AC160F30A200AC142C160C30F200F0
:100200002630F300CD262700A00008002C1B080094
:100210002C170C30F2001E30F300CD262700A10071
:10022000AC142C160C30F2002630F300CD2627003B
:10023000A00008002C1A0800AC10AC1108002C001B
:100240000830A20027002C12AC122C00A01B2E2973
:1002500027002C14AC152C11AC1008002700AC1989
:1002600036292C152C13AC102C100800AC142C10B3
:100270002C11080027002808F60003195529F60359
:1002800003196429F60303197B29F60303198E2940
:10029000F6030319A329F6030319B929F603031971
:1002A000CB29F6030319DC29EE290A302C002102A0
:1002B000031808000A302D02031808002700083030
:1002C000A3000130A80008002C000A302102031806
:1002D00075290A302D02031875292700A308031D6C
:1002E000080027000230A800080027000030A800FE
:1002F000A911291108002C000A30210203187529C0
:1003000032302D02031C08002C08F60027000830AC
:10031000A3000330F61F0430A80008002C000A30A8
:1003200021020318752932302D02031C7129AC1FDC
:1003300071292700A308031D080027000530A80025
:100340007620291508002C000A302102031875298F
:1003500032302D02031C7129AC1B71292700A30820
:10036000031D080027000730A80076202700A915E4
:1003700008002C00AC1BC02932302D02031875294F
:100380002C000A302D020318080027001E30A3009D
:100390000630A80008002C00AC1BD22932302D02F8
:1003A000031875292C000A302D0203189D292700F7
:1003B000A308031D080075292C00AC1FE329323067
:1003C0002D02031C75292C000A302D020318080089
:1003D00027001E30A3000830A80008002C00AC1F26
:1003E000F52932302D02031875292C000A302D0210
:1003F0000318B2292700A308031D08007529270048
:100400002D1A042AAD1E08002D1BAD01AD1BAD0138
:100410002D1E152A2C0032302D02031C152AAC1F6C
:10042000B609B0222700EF30AD05AD1E08002C0044
:1004300014302102031C0800A01BAB09B0222700C6
:10044000DF30AD0508002700AD080319282A080091
:100450002C00AD08031D312A270031082700AF000A
:1004600008002C002C08F60027003208F61B300884
:10047000F600B501F61BB5173108F602F61BF603B8
:10048000F61BF6097608F0002C002D081B276430B7
:10049000F200F3014E262700B51F512A7008F00123
:1004A000F002270031087007AF0008002700AD1BDD
:1004B0008D2AAD197E2A2D19732AAD18692A2D1C93
:1004C00008008830B000B1017830B2000230AD00D1
:1004D000282A2D1F282A282227002F082700B400A9
:1004E0000430AD00080027002D1F282A28222700ED
:1004F0002F082700B3000830AD00080027002D1F8B
:10050000282A282227002F082700B2003308B0002D
:100510003408B100AD01B02208002700AD019122DE
:1005200008000030EE22133C031DCA2A0630EE22DA
:10053000423C031DCA2A0130EE222700B0000230DF
:10054000EE222700B1000330EE222700B200043073
:10055000EE222C00B6000530EE222C00AB00080085
:1005600027003008F6000130DE2227003108F600AF
:100570000230DE2227003208F6000330DE222C0093
:100580003608F6000430DE222C002B08F600053079
:10059000DE22080027009C30B000B1016430B200B8
:1005A0002C00B6012C00AB01B0221330F600003055
:1005B000DE224230F6000630DE22080023009100E1
:1005C0007608930015158B1355309600AA309600C7
:1005D00095148B1715119518EB2A0800230091002C
:1005E0001514130808002C003E30B9007D30BA0005
:1005F0000630BD001E30BE0027001030AE000800DF
:100600005224F523A4232700AE08031D0F2B6824D2
:100610000B24BF2308002C00A001A10108002C001E
:10062000AC01AD01A001A101BF232C00BD0B08004E
:100630000630BD00BE0B08002C002408A6002308CD
:10064000A5002F08B100F1002E08B000F000003026
:10065000F300C830F2003F272C007108B500700885
:10066000B4003108F1003008F00046272C00710872
:10067000B3007008B2002608F1002508F0003F27FB
:100680002C007108AA007008A9002608F1002508AE
:10069000F00046272C007108A8007008A70027006A
:1006A000AE01080020001810970196018C18562BF7
:1006B0008C1C582B18148C185B2B181017082C0046
:1006C000AF00200016082C00AE00200097010E306D
:1006D000960018140C186A2B181017082C00A40088
:1006E000200016082C00A300200097010E30960071
:1006F00018148C19792B1810AF24F00DF10DF00D92
:10070000F10DF00DF10DF00DF10D71082C00B80098
:100710002C002F08200097002C002E0820009600A7
:10072000AF242C007108AF007008AE002408200030
:1007300097002C00230820009600AF242C0071089D
:10074000A4007008A30008002C00B80120001810B5
:10075000970196018C19AA2B8C1DAC2B18148C199F
:10076000AF2B1810AF24F00DF10DF00DF10DF00DC1
:10077000F10DF00DF10D71082C00B80008002C00EF
:100780003908BB000310BB0C3A08F6000310760CC6
:10079000BB073908F6003A085B272C00BC00390873
:1007A000F6003A0860272C00BC020310BC0C0310B2
:1007B000BC0C0310BC0C371CE22B3A08390203189E
:1007C000E62BEC2B3A0839020318EC2B3B083C07CC
:1007D0003802031C0800F12B3C083B0238020318C6
:1007E00008000130B706B71408002C00A401A301CB
:1007F00020001810970196010C18FC2B0C1CFE2BE6
:1008000018140C18012C1810AF242C007108A40027
:100810007008A30008002C002408F1002308F00051
:10082000F301F2015427031D172C03014A2C2C005D
:100830002608F3002508F2005427031D212C03018C
:100840004A2C2C002408F1002308F0004D27031C3B
:100850003A2C2C002808F5002708F400F3262C0079
:100860007508A8007408A700D9242C00AB08031948
:10087000003C4A2C2C002A08F5002908F400012726
:100880002C007508AA007408A900D9242C00AB0814
:10089000031D003C2C00A000A100A11BA103A11B73
:1008A000A10908002C00AF01AE012000181097012B
:1008B00096018C18592C8C1C5B2C18148C185E2CEF
:1008C0001810AF242C007108AF007008AE000800AB
:1008D0002C002F08F1002E08F000F301F20154273C
:1008E000031D742C0301A72C2C003108F3003008E1
:1008F000F2005427031D7E2C0301A72C2C002F0887
:10090000F1002E08F0004D27031C972C2C00330813
:10091000F5003208F400F3262C007508B3007408C3
:10092000B200D9242C00B6080319003CA72C2C00D7
:100930003508F5003408F40001272C007508B500CF
:100940007408B400D9242C00B608031D003C2C0008
:10095000AC00AD00AD1BAD03AD1BAD090800200020
:100960001708F1001608F0000230F3005830F200CA
:100970004D27031CBE2CF101F00108000930F300E3
:10098000C430F2004D27031CBB2C0330F300203091
:10099000F2004D27031CD12C7308F1007208F000FF
:1009A00008000830F300FC30F2004D27031CCC2C6B
:1009B000080071087306F106F30670087206F00667
:1009C000F20673087506F306F50672087406F20659
:1009D000F4064D270318282D740872027508031CAD
:1009E000750F7302031864347108C0007008BF00EB
:1009F00073087506F306F50672087406F206F40627
:100A000046273827722640087106C006F1063F08BF
:100A10007006BF06F00673087506F306F506720841
:100A20007406F206F4064627382771087306F106A5
:100A3000F30670087206F006F20640087106C0065A
:100A4000F1063F087006BF06F0064E267008080043
:100A5000740872027508031C750F7302031C64345A
:100A600073087506F306F50672087406F206F406B6
:100A700071087306F106F30670087206F006F206B6
:100A800046273827722671084006F106C00670080E
:100A90003F06F006BF0671087506F106F5067008F8
:100AA0007406F006F4064627382771087306F10627
:100AB000F30670087206F006F20640087106C006DA
:100AC000F1063F087006BF06F0064E2670080800C3
:100AD000FF25E72527000F30BE00BD0014260800C3
:100AE000E7252700AE08031D9E2DAD08031DA52D8B
:100AF00027002A08F6007618B8257618CB25F618B0
:100B0000BD257619C225F619C72527002C08F60041
:100B1000F618D02527002C08F6007619D6252700D0
:100B2000291C9C2D2908F600F618DB25F618E1256E
:100B30007619DB25F619E125142608002E1E08007B
:100B400027000F30B900BA009C2DAD18B12D2D191A
:100B5000B42DAD19B62D2D1ADB252700AD1ABD25F4
:100B60009C2DDB25E1259C2DDB259C2DE1259C2D55
:100B700027000730B700B800080027000F30B90081
:100B8000BA00080027000F30BB00BC000800270097
:100B90003F30BF00080027000330C100C20008003A
:100BA00027000F30C000C100C200080027000F302E
:100BB000C300C400080027000F30BD000F30C5007F
:100BC000080027000F30BE000F30C60008000330B9
:100BD0008500B73084001030F60003011A00F60BD0
:100BE000EE2D08000301F70003308500B7308400C4
:100BF0003030F60077081A00F60BFB2D08002200B3
:100C00008C168E120C120C30F60024009101141C6C
:100C1000072E1108F60B062E22000C1600000C12EF
:100C200022008C128E160800033085008700C63023
:100C300084008600130089358935F600003F890E4F
:100C4000033976041F001300890EF039F600003FC7
:100C5000893689360F3976041F001300890E8935CD
:100C60008935C039F60013003F3976041F000608A5
:100C7000BA3C031D1A2E0C30F60003308500C63036
:100C80008400240013009100141C442E1108F60B5C
:100C9000422E22000C1600000C120800F401F5018F
:100CA000F6011030F7000314F00DF10DF40DF50D01
:100CB000F60D7208701C652EF4027308031C730F86
:100CC000F5020130031CF6026D2EF40773080318B9
:100CD000730FF50701300318F607F70B542EF00DCC
:100CE000F10D08000310F00DF10DF00DF10D71087C
:100CF000F7007008F6000310F60DF70DF60DF70D6E
:100D0000F60DF70D7608F00777080318770FF1074F
:100D10000310F60DF70D7608F00777080318770F24
:100D2000F107080023009D18A12E1D19AB2E2000ED
:100D3000911E922E8B138B1B9A2E230019088B1752
:100D400008008B138B1BA12E1D12190819081908F6
:100D50001D168B17922E8B138B1BAB2E19088B171E
:100D6000922E25000A30930008002000783EF00003
:100D7000F101E1263027181097019601250070082F
:100D80009100710892002000111118140E16111D07
:100D9000C72E0E121810111108007208F60001304B
:100DA0005B27F200F60073085B27F3002627720822
:100DB0003602031CD62E36087302031CD62E3608C4
:100DC00008000310F00DF101F10D7108F300700837
:100DD000F2000310F20DF30D7208F0077308031808
:100DE000730FF1070800700874027108031C013EBC
:100DF00075028039031D08007008F4007108F500C1
:100E00000800700874027108031C013E75028039E5
:100E1000031908007008F4007108F50008002300A9
:100E20009E1C102FF6005030F700F70B152F2300F3
:100E300076089A000800F101F601F615F00C031887
:100E4000F107F10CF00CF60B1F2F08002700B60875
:100E50000319B6030310360C0318B43AB6000800A1
:100E60000C30F0070330F3000318730FF10708008C
:100E70000310F10CF00C0310F10CF00C08007208D8
:100E8000F00773080318730AF10708007208F002EC
:100E90007308031C730FF1020800700872027108D6
:100EA000031C710F7302080070087202031D080012
:100EB0007108730208007602031CF6027608080027
:0A0EC00076020318F6027608080017
:020000040001F9
:02000E0084C9A3
:02001000FFDC13
:00000001FF
