:020000040000FA
:020000002B28AB
:08000800F0000308F10083126F
:1000100003131010B1308F00E0308E0010140C105C
:10002000F508031D1928F608031D20280510851062
:1000300026288510051486155D208611F5032628CF
:1000400005108514861558208611F6037108830063
:10005000F00E700E09002A3007309F0085018601DE
:10006000831603138112243085001030860083121A
:100070000313B1308F00E0308E00013090000B1779
:100080008B17831603130C14831203130130900093
:1000900005195128771C48287710FA30F500F60129
:1000A0004828771848287714FA30F600F5014828D0
:1000B0000330F300B930F20061280230F300283039
:0C00C000F200F20B6128F30B612808002D
:02400E00503F21
:00000001FF
