:020000040000FA
:100000005D280301F7000630850021308400303080
:10001000F60077081A00F60B0A28080022008C1652
:100020008E120C120C30F60024009101141C1628BC
:100030001108F60B152822000C1600000C122200E5
:100040008C128E1608000630850087003030840040
:100050008600130089358935F600003F890E033983
:1000600076041F001300890EF039F600003F893630
:1000700089360F3976041F001300890E89358935BA
:10008000C039F60013003F3976041F000608243CEF
:10009000031D29280C30F60006308500303084001E
:1000A000240013009100141C53281108F60B51284A
:1000B00022000C1600000C1208002100F0309900FC
:1000C00022008C018E018C1623008C0122008030CE
:1000D0009D009E0121000B308C0002308E0020001C
:1000E000303098002000FF309B0020007F309C00C3
:1000F00021008730950020008B01230020309E00D6
:100100001E1510309B0090309D0000309F00190894
:100110001908190800309A0024002030950040305A
:1001200094000E20AA20962023209328D920873CD3
:10013000031D96282C001030B100063085002130B8
:100140008400D9201A00873C03199A282C00B10B8F
:10015000A128080006308500213084001030F60008
:1001600003011A00F60BB1280800F401F501F601AD
:100170001030F7000314F00DF10DF40DF50DF60D30
:100180007208701CCC28F4027308031C730FF5026C
:100190000130031CF602D428F40773080318730F08
:1001A000F50701300318F607F70BBB28F00DF10D2A
:1001B000080023009D18E8281D19F2282000911E30
:1001C000D9288B138B1BE128230019088B170800F3
:1001D0008B138B1BE8281D121908190819081D1606
:1001E0008B17D9288B138B1BF22819088B17D9284A
:1001F0007208F60001302D21F200F60073082D215F
:10020000F300232172082002031C01292008730235
:10021000031C01292008080023009E1C0D29F6005C
:100220005030F700F70B1229230076089A000800D7
:10023000F101F601F615F00C0318F107F10CF00CC2
:10024000F60B1C2908002C00A0080319A0030310BA
:10025000200C0318B43AA00008007602031CF60232
:040260007608080014
:020000040001F9
:02000E0084C9A3
:02001000FFDC13
:00000001FF
