:020000040000FA
:1000000001282100F030990022008C0123008C018E
:10001000220000309D0021000E308C002000303086
:1000200098002000FF309B0020007F309C002100C2
:100030008730950020008B01230020309E001E1584
:1000400033309B0090309D0000309F001908190844
:10005000190800309A002100A501A901AA01AB01ED
:10006000AC01AD01AE01A001A201A301A601A7014F
:10007000A801AF010530A40020000C30E200B3223B
:100080005122482349238220E3203521FA214723A6
:100090004A2042282100A9132000911C0800911039
:1000A00021000830A506A51D08002100A917210080
:1000B000A608031DA603A308031DA303A20B64281F
:1000C000AC1E6428AC12AC11A00B6A282C1E6A2846
:1000D0002C12AC10A10B70282C1F70282C132C1183
:1000E000A40B76280530A4000130A90608002100E1
:1000F000A918080029190800A91908000530A4004A
:10010000291408002100AE080319872808002519C2
:100110009128251525102000671C080021002514B2
:10012000080020006708F70021002506F600761C6D
:10013000A1282510771825142100A70A0630A6004B
:100140000800A70803190800A608031D0800AD0849
:100150000319B128A70BAE282D170800AD17A7016A
:100160000800A70BB828AA0D2A140F30AA0508000A
:10017000A70BBE28AA0C0F30AA050800A70BC92898
:100180000F302A050F3C0F3003190030AA00031965
:100190000800A70BD128A701772021000230A9066B
:1001A0000800A70BD428E128A70BD828AB0A080021
:1001B000A70BDE28A7013030AD000800A70BE1280F
:1001C0000800A701080020006208610203181A292C
:1001D00020000C30E20021002C18F3282C190129F2
:1001E000AC18152908002C10AC160F30A200AC1466
:1001F0002C160C30F2002630F300E0232100A00082
:1002000008002C1B08002C170C30F2001E30F300E5
:10021000E0232100A100AC142C160C30F200263093
:10022000F300E0232100A00008002C1A0800AC1005
:10023000AC11080020000830E20021002C12AC12A2
:100240002000E01B292921002C14AC152C11AC1026
:1002500008002100AC1931292C152C13AC102C10DE
:100260000800AC142C102C11080021002808F600FE
:1002700003195029F60303195F29F6030319762998
:10028000F60303198929F60303199E29F6030319B6
:10029000B429F6030319C629F6030319D729E92956
:1002A0000A3020006102031808000A3065020318B2
:1002B000080021000830A3000130A8000800200039
:1002C0000A306102031870290A3065020318702988
:1002D0002100A308031D080021000230A800080027
:1002E00021000030A800A9112911080020000A30BF
:1002F00061020318702932306502031C080064088B
:10030000F60021000830A3000330F61F0430A800D7
:10031000080020000A30610203187029323065029B
:10032000031C6C29E41F6C292100A308031D08008D
:1003300021000530A80077202915080020000A3088
:1003400061020318702932306502031C6C29E41B1A
:100350006C292100A308031D080021000730A80014
:1003600077202100A91508002000E41BBB293230AA
:1003700065020318702920000A306502031808007E
:1003800021001E30A3000630A80008002000E41B56
:10039000CD29323065020318702920000A30650229
:1003A000031898292100A308031D080070292000C4
:1003B000E41FDE2932306502031C702920000A3058
:1003C00065020318080021001E30A3000830A800B1
:1003D00008002000E41FF02932306502031870295C
:1003E00020000A3065020318AD292100A308031D6F
:1003F0000800702921002D1AFF29AD1E08002D1BB1
:10040000AD01AD1BAD012D1E102A2000323065025A
:10041000031C102AE41FE60970222100EF30AD050D
:10042000AD1E0800200014306102031C0800E01B10
:10043000E30970222100DF30AD0508002100AD087E
:100440000319232A08002000E508031D2C2A210097
:1004500031082100AF00080020006408F6002100E8
:100460003208F61B3008F600B501F61BB517310847
:10047000F602F61BF603F61BF6097608F0002000DC
:1004800065081B246430F200F3017F232100B51FAF
:100490004C2A7008F001F002210031087007AF000B
:1004A00008000030AE22133C031D8A2A0630AE221B
:1004B000423C031D8A2A0130AE222100B0000230E6
:1004C000AE222100B1000330AE222100B200043080
:1004D000AE222000E6000530AE222000E300080036
:1004E00021003008F60001309E2221003108F6007C
:1004F00002309E2221003208F60003309E222000A6
:100500006608F60004309E2220006308F6000530DD
:100510009E22080021009C30B000B1016430B2007E
:100520002000E6012000E30170221330F6000030C5
:100530009E224230F60006309E22080023009100E1
:100540007608930015158B1355309600AA30960047
:1005500095148B1715119518AB2A080023009100EC
:10056000151413080800F42320006930EB00EC0098
:10057000ED00082320006930EB00EC01ED010823B9
:1005800020006930EB01EC00ED0108232000693008
:10059000EB01EC01ED000823FF300324C2233723D5
:1005A00037233723372337232000FF30EB00EC01BC
:1005B000ED011B23C22337232000FF30EB01EC00A9
:1005C000ED011B23C22337232000FF30EB01EC0198
:1005D000ED001B23C223372301300324C22337231A
:1005E00007300324C22337230D300324C2233723CB
:1005F0001A300324C223372334300324C223372381
:1006000069300324C22337230224C2233723B42AA8
:1006100000308700213086001530F00002242000D1
:100620006B081E006C081E006D081E00C2232A23E2
:10063000F00B0E2B080000308500213084001530AF
:10064000F6006B081A006C081A006D081A00F60B09
:10065000212B08006D30E800BF30E9000230EA00CD
:10066000E80B332BE90B352BEA0B302B0800473016
:10067000E8007130E9001230EA00E80B402BE90B8A
:10068000422BEA0B3D2B442B452B462B0800080040
:100690000800A323873C031D492BA3232000E4006B
:1006A000873C03194D2BA3232000E000873C03194E
:1006B0004D2BA3232000E7002100AE00873C031947
:1006C0004D2B20000130E7052100F030AE05200061
:1006D0006008E100E11BE103E11BE1096408E500BA
:1006E000E51BE503E51BE509E6080319792BE40999
:1006F000E40AE30803190800E009E00A0800F4012D
:10070000F501F6011030F7000314F00DF10DF40DB2
:10071000F50DF60D7208701C962BF4027308031C7D
:10072000730FF5020130031CF6029E2BF4077308C9
:100730000318730FF50701300318F607F70B852B25
:10074000F00DF10D080023009D18B22B1D19BC2BD4
:100750002000911EA32B8B138B1BAB2B230019089E
:100760008B1708008B138B1BB22B1D12190819084D
:1007700019081D168B17A32B8B138B1BBC2B190869
:100780008B17A32B213084000030850020003F30E0
:10079000F7000830F6001200891BD32B8C160000DE
:1007A00000008C12DA2B8C16000000000000000004
:1007B00000008C12890DF60BCC2BF70BC92B08000F
:1007C0007208F60001303024F200F600730830247D
:1007D000F300262472082002031CE92B2008730270
:1007E000031CE92B2008080002240A30F000FC2337
:1007F000C223F00BF72B08008330F600F60BFE2B1C
:10080000012C08000301F70000308500213084002E
:100810003F30F60077081A00F60B0B2C0800230077
:100820009E1C102CF6005030F700F70B152C2300FF
:1008300076089A000800F101F601F615F00C03188D
:10084000F107F10CF00CF60B1F2C08002000A0089B
:100850000319A0030310200C0318B43AA0000800E9
:0A0860007602031CF6027608080079
:020000040001F9
:02000E0084C9A3
:02001000FFDC13
:00000001FF
